:020000040800F2
:10000000600600206D0100087101000873010008FE
:100010007501000877010008790100080000000060
:100020000000000000000000000000007B0100084C
:100030007D010008000000007F0100088101000828
:100040008301000883010008830100088301000880
:100050008301000883010008830100088301000870
:100060008301000883010008830100088301000860
:100070008301000883010008830100088301000850
:100080008301000883010008830100088301000840
:100090008301000883010008830100088301000830
:1000A0008301000883010008830100088301000820
:1000B0008301000883010008830100088301000810
:1000C0008301000883010008830100088301000800
:1000D00083010008830100088301000883010008F0
:1000E00083010008830100088301000800F002F882
:1000F00000F02CF80AA090E8000C82448344AAF196
:100100000107DA4501D100F021F8AFF2090EBAE893
:100110000F0013F0010F18BFFB1A43F0010318473B
:10012000FC0100000C020000002300240025002632
:10013000103A28BF78C1FBD8520728BF30C148BF4A
:100140000B6070471FB51FBD10B510BD00F02DF836
:100150001146FFF7F7FF00F09DF800F04BF803B4ED
:10016000FFF7F2FF03BC00F053F800000848004717
:10017000FEE7FEE7FEE7FEE7FEE7FEE7FEE7FEE757
:10018000FEE7FEE703480449044A054B70470000B8
:10019000ED000008600000206006002060020020E2
:1001A00060020020704770477047754600F02CF8D9
:1001B000AE4605006946534620F00700854618B054
:1001C00020B5FFF7DFFFBDE820404FF000064FF0FD
:1001D00000074FF000084FF0000BAC46ACE8C00938
:1001E000ACE8C009ACE8C009ACE8C00921F00701DF
:1001F0008D46704710B50446AFF300802046BDE839
:100200001040FFF7ACBF000000487047000000201E
:1002100001491820ABBEFEE726000200704700002F
:1002200040F60C00C4F20100002101604FF400719F
:10023000C0F800144FF48041C0F800187047000067
:1002400040F60C00C4F20100202101600021C0F83A
:1002500000144FF48041C0F80018704740F60C00BD
:10026000C4F20100202101604FF40071C0F80014B5
:100270000021C0F80018704781B000900098411E1E
:10028000009120B10098411E00280091FAD101B0E0
:100290007047000041F21800C4F202000168022217
:1002A00041F01C01016040F60440C4F20100016805
:1002B000012362F307110160D0F80014032262F3F6
:1002C0001F71C0F8001440F60001C4F201010A6871
:1002D00044F2402463F313420A608268C0F20F04C0
:1002E00042F400728260D0F8082442F48042C0F8E0
:1002F0000824C86840F02000C86000BFFFF7A0FFD6
:100300002046FFF7B9FFFFF7A9FF2046FFF7B4FF2C
:10031000FFF786FF2046FFF7AFFFEFE72C0300084B
:0C0320000000002060060000280100081A
:04000005080000ED02
:00000001FF
